{
  "_format": "hh-sol-artifact-1",
  "contractName": "VerificationMint",
  "sourceName": "contracts/VerificationMint.sol",
  "abi": [
    {
      "inputs": [],
      "stateMutability": "nonpayable",
      "type": "constructor"
    },
    {
      "inputs": [],
      "name": "admin",
      "outputs": [
        {
          "internalType": "address",
          "name": "",
          "type": "address"
        }
      ],
      "stateMutability": "view",
      "type": "function"
    },
    {
      "inputs": [
        {
          "internalType": "address",
          "name": "_user",
          "type": "address"
        }
      ],
      "name": "approveUser",
      "outputs": [],
      "stateMutability": "nonpayable",
      "type": "function"
    },
    {
      "inputs": [
        {
          "internalType": "address",
          "name": "_user",
          "type": "address"
        }
      ],
      "name": "getUser",
      "outputs": [
        {
          "components": [
            {
              "internalType": "string",
              "name": "name",
              "type": "string"
            },
            {
              "internalType": "string",
              "name": "company",
              "type": "string"
            },
            {
              "internalType": "string",
              "name": "website",
              "type": "string"
            },
            {
              "internalType": "bool",
              "name": "isSubmitted",
              "type": "bool"
            },
            {
              "internalType": "bool",
              "name": "isApproved",
              "type": "bool"
            },
            {
              "internalType": "bool",
              "name": "isRejected",
              "type": "bool"
            }
          ],
          "internalType": "struct VerificationMint.User",
          "name": "",
          "type": "tuple"
        }
      ],
      "stateMutability": "view",
      "type": "function"
    },
    {
      "inputs": [],
      "name": "mintProduct",
      "outputs": [],
      "stateMutability": "nonpayable",
      "type": "function"
    },
    {
      "inputs": [
        {
          "internalType": "address",
          "name": "_user",
          "type": "address"
        }
      ],
      "name": "rejectUser",
      "outputs": [],
      "stateMutability": "nonpayable",
      "type": "function"
    },
    {
      "inputs": [
        {
          "internalType": "string",
          "name": "_name",
          "type": "string"
        },
        {
          "internalType": "string",
          "name": "_company",
          "type": "string"
        },
        {
          "internalType": "string",
          "name": "_website",
          "type": "string"
        }
      ],
      "name": "submitForm",
      "outputs": [],
      "stateMutability": "nonpayable",
      "type": "function"
    },
    {
      "inputs": [
        {
          "internalType": "address",
          "name": "",
          "type": "address"
        }
      ],
      "name": "users",
      "outputs": [
        {
          "internalType": "string",
          "name": "name",
          "type": "string"
        },
        {
          "internalType": "string",
          "name": "company",
          "type": "string"
        },
        {
          "internalType": "string",
          "name": "website",
          "type": "string"
        },
        {
          "internalType": "bool",
          "name": "isSubmitted",
          "type": "bool"
        },
        {
          "internalType": "bool",
          "name": "isApproved",
          "type": "bool"
        },
        {
          "internalType": "bool",
          "name": "isRejected",
          "type": "bool"
        }
      ],
      "stateMutability": "view",
      "type": "function"
    }
  ],
  "bytecode": "0x6080604052348015600f57600080fd5b50336000806101000a81548173ffffffffffffffffffffffffffffffffffffffff021916908373ffffffffffffffffffffffffffffffffffffffff1602179055506115ae8061005f6000396000f3fe608060405234801561001057600080fd5b506004361061007d5760003560e01c80636f77926b1161005b5780636f77926b146100c4578063a87430ba146100f4578063d624fdb614610129578063f851a440146101455761007d565b8063112d8423146100825780634dc928851461009e57806368b40801146100ba575b600080fd5b61009c60048036038101906100979190610d62565b610163565b005b6100b860048036038101906100b39190610e67565b610312565b005b6100c26104e7565b005b6100de60048036038101906100d99190610e67565b610578565b6040516100eb9190610fc5565b60405180910390f35b61010e60048036038101906101099190610e67565b6107d8565b60405161012096959493929190611040565b60405180910390f35b610143600480360381019061013e9190610e67565b6109d3565b005b61014d610ba8565b60405161015a91906110c5565b60405180910390f35b600160003373ffffffffffffffffffffffffffffffffffffffff1673ffffffffffffffffffffffffffffffffffffffff16815260200190815260200160002060030160009054906101000a900460ff16156101f3576040517f08c379a00000000000000000000000000000000000000000000000000000000081526004016101ea9061112c565b60405180910390fd5b6040518060c0016040528084815260200183815260200182815260200160011515815260200160001515815260200160001515815250600160003373ffffffffffffffffffffffffffffffffffffffff1673ffffffffffffffffffffffffffffffffffffffff168152602001908152602001600020600082015181600001908161027d9190611362565b5060208201518160010190816102939190611362565b5060408201518160020190816102a99190611362565b5060608201518160030160006101000a81548160ff02191690831515021790555060808201518160030160016101000a81548160ff02191690831515021790555060a08201518160030160026101000a81548160ff021916908315150217905550905050505050565b60008054906101000a900473ffffffffffffffffffffffffffffffffffffffff1673ffffffffffffffffffffffffffffffffffffffff163373ffffffffffffffffffffffffffffffffffffffff16146103a0576040517f08c379a000000000000000000000000000000000000000000000000000000000815260040161039790611480565b60405180910390fd5b600160008273ffffffffffffffffffffffffffffffffffffffff1673ffffffffffffffffffffffffffffffffffffffff16815260200190815260200160002060030160009054906101000a900460ff1661042f576040517f08c379a0000000000000000000000000000000000000000000000000000000008152600401610426906114ec565b60405180910390fd5b60018060008373ffffffffffffffffffffffffffffffffffffffff1673ffffffffffffffffffffffffffffffffffffffff16815260200190815260200160002060030160026101000a81548160ff0219169083151502179055506000600160008373ffffffffffffffffffffffffffffffffffffffff1673ffffffffffffffffffffffffffffffffffffffff16815260200190815260200160002060030160016101000a81548160ff02191690831515021790555050565b600160003373ffffffffffffffffffffffffffffffffffffffff1673ffffffffffffffffffffffffffffffffffffffff16815260200190815260200160002060030160019054906101000a900460ff16610576576040517f08c379a000000000000000000000000000000000000000000000000000000000815260040161056d90611558565b60405180910390fd5b565b610580610bcc565b600160008373ffffffffffffffffffffffffffffffffffffffff1673ffffffffffffffffffffffffffffffffffffffff1681526020019081526020016000206040518060c00160405290816000820180546105da9061117b565b80601f01602080910402602001604051908101604052809291908181526020018280546106069061117b565b80156106535780601f1061062857610100808354040283529160200191610653565b820191906000526020600020905b81548152906001019060200180831161063657829003601f168201915b5050505050815260200160018201805461066c9061117b565b80601f01602080910402602001604051908101604052809291908181526020018280546106989061117b565b80156106e55780601f106106ba576101008083540402835291602001916106e5565b820191906000526020600020905b8154815290600101906020018083116106c857829003601f168201915b505050505081526020016002820180546106fe9061117b565b80601f016020809104026020016040519081016040528092919081815260200182805461072a9061117b565b80156107775780601f1061074c57610100808354040283529160200191610777565b820191906000526020600020905b81548152906001019060200180831161075a57829003601f168201915b505050505081526020016003820160009054906101000a900460ff161515151581526020016003820160019054906101000a900460ff161515151581526020016003820160029054906101000a900460ff1615151515815250509050919050565b60016020528060005260406000206000915090508060000180546107fb9061117b565b80601f01602080910402602001604051908101604052809291908181526020018280546108279061117b565b80156108745780601f1061084957610100808354040283529160200191610874565b820191906000526020600020905b81548152906001019060200180831161085757829003601f168201915b5050505050908060010180546108899061117b565b80601f01602080910402602001604051908101604052809291908181526020018280546108b59061117b565b80156109025780601f106108d757610100808354040283529160200191610902565b820191906000526020600020905b8154815290600101906020018083116108e557829003601f168201915b5050505050908060020180546109179061117b565b80601f01602080910402602001604051908101604052809291908181526020018280546109439061117b565b80156109905780601f1061096557610100808354040283529160200191610990565b820191906000526020600020905b81548152906001019060200180831161097357829003601f168201915b5050505050908060030160009054906101000a900460ff16908060030160019054906101000a900460ff16908060030160029054906101000a900460ff16905086565b60008054906101000a900473ffffffffffffffffffffffffffffffffffffffff1673ffffffffffffffffffffffffffffffffffffffff163373ffffffffffffffffffffffffffffffffffffffff1614610a61576040517f08c379a0000000000000000000000000000000000000000000000000000000008152600401610a5890611480565b60405180910390fd5b600160008273ffffffffffffffffffffffffffffffffffffffff1673ffffffffffffffffffffffffffffffffffffffff16815260200190815260200160002060030160009054906101000a900460ff16610af0576040517f08c379a0000000000000000000000000000000000000000000000000000000008152600401610ae7906114ec565b60405180910390fd5b60018060008373ffffffffffffffffffffffffffffffffffffffff1673ffffffffffffffffffffffffffffffffffffffff16815260200190815260200160002060030160016101000a81548160ff0219169083151502179055506000600160008373ffffffffffffffffffffffffffffffffffffffff1673ffffffffffffffffffffffffffffffffffffffff16815260200190815260200160002060030160026101000a81548160ff02191690831515021790555050565b60008054906101000a900473ffffffffffffffffffffffffffffffffffffffff1681565b6040518060c001604052806060815260200160608152602001606081526020016000151581526020016000151581526020016000151581525090565b6000604051905090565b600080fd5b600080fd5b600080fd5b600080fd5b6000601f19601f8301169050919050565b7f4e487b7100000000000000000000000000000000000000000000000000000000600052604160045260246000fd5b610c6f82610c26565b810181811067ffffffffffffffff82111715610c8e57610c8d610c37565b5b80604052505050565b6000610ca1610c08565b9050610cad8282610c66565b919050565b600067ffffffffffffffff821115610ccd57610ccc610c37565b5b610cd682610c26565b9050602081019050919050565b82818337600083830152505050565b6000610d05610d0084610cb2565b610c97565b905082815260208101848484011115610d2157610d20610c21565b5b610d2c848285610ce3565b509392505050565b600082601f830112610d4957610d48610c1c565b5b8135610d59848260208601610cf2565b91505092915050565b600080600060608486031215610d7b57610d7a610c12565b5b600084013567ffffffffffffffff811115610d9957610d98610c17565b5b610da586828701610d34565b935050602084013567ffffffffffffffff811115610dc657610dc5610c17565b5b610dd286828701610d34565b925050604084013567ffffffffffffffff811115610df357610df2610c17565b5b610dff86828701610d34565b9150509250925092565b600073ffffffffffffffffffffffffffffffffffffffff82169050919050565b6000610e3482610e09565b9050919050565b610e4481610e29565b8114610e4f57600080fd5b50565b600081359050610e6181610e3b565b92915050565b600060208284031215610e7d57610e7c610c12565b5b6000610e8b84828501610e52565b91505092915050565b600081519050919050565b600082825260208201905092915050565b60005b83811015610ece578082015181840152602081019050610eb3565b60008484015250505050565b6000610ee582610e94565b610eef8185610e9f565b9350610eff818560208601610eb0565b610f0881610c26565b840191505092915050565b60008115159050919050565b610f2881610f13565b82525050565b600060c0830160008301518482036000860152610f4b8282610eda565b91505060208301518482036020860152610f658282610eda565b91505060408301518482036040860152610f7f8282610eda565b9150506060830151610f946060860182610f1f565b506080830151610fa76080860182610f1f565b5060a0830151610fba60a0860182610f1f565b508091505092915050565b60006020820190508181036000830152610fdf8184610f2e565b905092915050565b600082825260208201905092915050565b600061100382610e94565b61100d8185610fe7565b935061101d818560208601610eb0565b61102681610c26565b840191505092915050565b61103a81610f13565b82525050565b600060c082019050818103600083015261105a8189610ff8565b9050818103602083015261106e8188610ff8565b905081810360408301526110828187610ff8565b90506110916060830186611031565b61109e6080830185611031565b6110ab60a0830184611031565b979650505050505050565b6110bf81610e29565b82525050565b60006020820190506110da60008301846110b6565b92915050565b7f416c7265616479207375626d6974746564000000000000000000000000000000600082015250565b6000611116601183610fe7565b9150611121826110e0565b602082019050919050565b6000602082019050818103600083015261114581611109565b9050919050565b7f4e487b7100000000000000000000000000000000000000000000000000000000600052602260045260246000fd5b6000600282049050600182168061119357607f821691505b6020821081036111a6576111a561114c565b5b50919050565b60008190508160005260206000209050919050565b60006020601f8301049050919050565b600082821b905092915050565b60006008830261120e7fffffffffffffffffffffffffffffffffffffffffffffffffffffffffffffffff826111d1565b61121886836111d1565b95508019841693508086168417925050509392505050565b6000819050919050565b6000819050919050565b600061125f61125a61125584611230565b61123a565b611230565b9050919050565b6000819050919050565b61127983611244565b61128d61128582611266565b8484546111de565b825550505050565b600090565b6112a2611295565b6112ad818484611270565b505050565b5b818110156112d1576112c660008261129a565b6001810190506112b3565b5050565b601f821115611316576112e7816111ac565b6112f0846111c1565b810160208510156112ff578190505b61131361130b856111c1565b8301826112b2565b50505b505050565b600082821c905092915050565b60006113396000198460080261131b565b1980831691505092915050565b60006113528383611328565b9150826002028217905092915050565b61136b82610e94565b67ffffffffffffffff81111561138457611383610c37565b5b61138e825461117b565b6113998282856112d5565b600060209050601f8311600181146113cc57600084156113ba578287015190505b6113c48582611346565b86555061142c565b601f1984166113da866111ac565b60005b82811015611402578489015182556001820191506020850194506020810190506113dd565b8683101561141f578489015161141b601f891682611328565b8355505b6001600288020188555050505b505050505050565b7f4f6e6c792061646d696e00000000000000000000000000000000000000000000600082015250565b600061146a600a83610fe7565b915061147582611434565b602082019050919050565b600060208201905081810360008301526114998161145d565b9050919050565b7f4e6f74207375626d697474656400000000000000000000000000000000000000600082015250565b60006114d6600d83610fe7565b91506114e1826114a0565b602082019050919050565b60006020820190508181036000830152611505816114c9565b9050919050565b7f596f7520617265206e6f7420617070726f766564000000000000000000000000600082015250565b6000611542601483610fe7565b915061154d8261150c565b602082019050919050565b6000602082019050818103600083015261157181611535565b905091905056fea2646970667358221220ea4be2aa58f7fb65950b484173ea6d1b2cda9d0def50f6233d1547ffd7643e8764736f6c634300081c0033",
  "linkReferences": {},
  "deployedLinkReferences": {}
}